:020000040000FA
:100000002500220B080AEE0A500A7C0AC10A100BCE
:10001000E20124084708500852084D0843082C08FC
:100020003108320833083508310839082C084108EE
:100030002C0834083808300837082E0830083308F0
:1000400038082C084E082C083008310831083308CD
:1000500031082E083008300830082C0845082C08D4
:100060003008320832082E0834082C0830083808C6
:1000700034082E0834082C083208330830083308B6
:10008000390834082C083008300833082E083108A5
:100090002C0857082A08360841080D080A080008E5
:1000A000E20124084708500847084C084C082C086F
:1000B00034083908310836082E08340835082C0869
:1000C0004E082C08310832083308310831082E0850
:1000D000310832082C0857082C0832083208350835
:1000E0003408340834082C0841082C082A08310840
:1000F00044080D080A080008E201240847085008CF
:100100004708470841082C083108320833083508E9
:10011000310839082C0834083808300837082E0808
:100120003008330838082C084E082C0830083108ED
:100130003108330831082E083008300830082C0800
:1001400045082C0831082C08300838082C083008DD
:100150002E0839082C083508340835082E083408CC
:100160002C084D082C08340836082E0839082C08AD
:100170004D082C082C082A08340837080D080A08EE
:100180000008E201240847085008560854084708A8
:100190002C083008360830082E0830082C0854087F
:1001A0002C083008340838082E0837082C084D0869
:1001B0002C083008300834082E0830082C084E0867
:1001C0002C083008300838082E0830082C084B0856
:1001D0002A08340833080D080A0800080A040A022D
:1001E00006000604080C2D00F50A0000ED05060BBC
:1001F000ED042C030306060503070604CD05060BD4
:10020000CD04ED02F90A040B000006050B0C2900D1
:10021000E902080B0000ED06F80ACD06000B000805
:100220000B024306210B010C29006800E802160BA3
:10023000E902150B4A0C2800E8021C0B1F0BEB020D
:10024000130B5C0BDF0C020064000A040A020600B8
:100250000605FF0C2A00080C02006B000B020809BF
:10026000AB0228002C00EE09460C8B0043072E0B36
:100270006B000B025009AB0228002C00EE092A0C7F
:100280008B004307390B6B000B027C09AB02280083
:100290002C00EE09430C8B004307440B6B000B0250
:1002A000C109AB0228002C00EE092B0C8B00430780
:0C02B0004F0B640C2B00070A2D0B030001
:021FFE00EB0FE7
:00000001FF
;PIC10F202
;CRC=4050  CREATED="16-Jan-10 14:44"
