:020000040000FA
:1000000001308A00FF2900002030CA00C601C70164
:10001000C801C9014108A3004008A2003F08A1008F
:100020003E08A0000310201C23284208C6074308EE
:100030000318430FC70744080318440FC8074508AF
:100040000318450FC907C90CC80CC70CC60CA30C74
:10005000A20CA10CA00CCA0B12280034A101A20111
:10006000A001A3013608031D3828350803195228BA
:100070001030B7000310B30DB40DA00DA30D36085A
:100080002302031D452835082002031C4E2835088D
:10009000A002031CA3033608A3020314A10DA20DA2
:1000A000B70B3A2800342908C1002808C0002708E7
:1000B000BF002608BE004130C500C630C4004E3027
:1000C000C3006D30C200042039302007A60021088B
:1000D000A700303003183130A7072208A8000030ED
:1000E00003180130A8072308A900003003180130C5
:1000F000A9072808A0002908A100A201A301290836
:10010000B2002808B1002908B4002808B3007F30E5
:10011000B600FF30B5002E202008A1002308A20061
:10012000172A430847068039CD00C31FA228C009FB
:10013000C109C209C309C00A0319C10A0319C20AC5
:100140000319C30AC71FAF28C409C509C609C709CF
:10015000C40A0319C50A0319C60A0319C70AA0016C
:10016000A101A201A301C801C901CA01CB0147082D
:100170004604450444040319ED282030CC00031044
:10018000C00DC10DC20DC30DC80DC90DCA0DCB0DDB
:1001900047084B02031DD62846084A02031DD628ED
:1001A00045084902031DD62844084802031CE728D5
:1001B0004408C8024508031C450FC9024608031C31
:1001C000460FCA024708031C470FCB020314A00DB9
:1001D000A10DA20DA30DCC0BBF28CD1FFA28A0099D
:1001E000A109A209A309A00A0319A10A0319A20AD5
:1001F0000319A30A4830840000340130B600B70167
:10020000B801B901BB01BC01B31F1E290130BB00FD
:100210003308C1003208C0003108BF003008BE00FA
:10022000FF30C500C400C300C20004202308B3008F
:100230002208B2002108B1002008B000B608031D52
:100240002A29B708031D2A29B808031D2A29B90835
:10025000031998293308C3003208C2003108C100CD
:100260003008C000C701C601C5013408C400912090
:100270002308B9002208B8002108B7002008B600FA
:1002800035083C07BE000408BF003308C30032082D
:10029000C2003108C1003008C000C701C601C50155
:1002A0003408C40091200008A000840A0008A100BE
:1002B000840A0008A200840A0008A3003F08840002
:1002C0002308C3002208C2002108C1002008C00082
:1002D00030302007A0002108A100003003180130B1
:1002E000A1072208A200003003180130A20723084A
:1002F000A300003003180130A3073E088400200843
:10030000800035083C0784000008393C03188E291A
:1003100035083C078400073000078000BC0A390814
:10032000B3003808B2003708B1003608B0001E2903
:100330003B0BA02935083C0784002D308000BC0A07
:10034000BA0103103C0C3A020318C22935083A07D7
:1003500084000008BD0035083A07BE003A083C0298
:10036000FF3E350784000008BF003E0884003F08B8
:1003700080003A083C02FF3E350784003D088000BB
:10038000BA0AA12935083C07840080013508A1007C
:10039000332A83160510831205100830A100D029D6
:1003A0000000A117E129A113B10C03180514031CC7
:1003B00005102117E1292113A10BD429DF29000001
:1003C00005140B308400840BE3290000A11BD32902
:1003D000211BDB2900343030840000080319FE297A
:1003E0000130A100A001A00BF329A10BF2294A3092
:1003F000A000A00BF929FC29800BF0294E2A8401CA
:100400001F30830583160510831205141F138316EE
:100410001F109F101F119F11073083129900A50113
:1004200083160108C739083881008312532822082F
:10043000B1002108B0002208B4002108B300023046
:10044000B600FD30B5002E202008AA002308AB001E
:10045000B301B2012B08B1002A08B0000A30B40081
:100460002C30B500FD285230B100C9212C30840059
:10047000003000040319452A0408B0000008B10048
:10048000C92130088400840A382A0D30B100C921FE
:100490000A30B100C9216430B000EB29162A63008C
:02400E00C731B8
:00000001FF
;PIC12F675
;CRC=FA21  CREATED="17-Dec-09 23:07"
